:03000000021B10D0
:0C1B1000787FE4F6D8FD758166021B5753
:0C000300000000000000000000000000F1
:0B204800EF1FAC0670011E4C70F6226A
:10201100AB07AA06EB1BAE0270011A4E60097FAA3C
:082021007E0512204880ED222B
:10186F00907120E04480F07F057E00122048E4FF55
:10187F00FE12201175A75575AC5C9071327450F043
:10188F009071307403F0907136742FF090715C7416
:10189F0003F090715BE054FCF07F18EF2466FDE4D9
:1018AF0034718D82F583E4F00FEFB433EE90401175
:1018BF00E4935407FF90711CE054F84FF0904017D9
:1018CF00E493547FFF90711DE054804FF0904010CF
:1018DF00E493FF5401C43333335480FE907123E0FB
:1018EF00547F4EF0EFC313543F4440FFA3E05480A6
:1018FF004FF0904012E493FF540FFE907146E05466
:10190F00F04EF0EFC4540FFF90714FE054F04FF0D2
:10191F00904013E493543FFF907140E054C04FF058
:10192F00904014E493907126F0904015E4939071D9
:0B193F0028F0904016E49390712AF00D
:01194A00227A
:101C20005E645D0000000000000000000000000095
:101C300000000000000000000000000000000000A4
:101C40000043647B00000043647F00000043648322
:101C5000000000C10B41647E004164580041648271
:081C600000446459000000007B
:0E004E00906450EFF012203B906450E0FF22CF
:101F880078D2E2F2E24404F2907187E04404F090DF
:101F98007175E0440BF043AA20D2AF75D60175D510
:051FA8009F75D211221B
:03004B0002202967
:06202900C0E0C083C0828C
:05202F00906451E4F093
:07203400D082D083D0E0321E
:0D203B00E5D430E4FB8FD7E5D430E4FB2280
:061FAD0090648F12169FE4
:101FB300E4FEEEC39D501590648F1216968E8275C3
:0C1FC3008300121579FF12203B0E80E60F
:011FCF0022EF
:10000F00000009C4006400C80101F4004B000A009D
:10001F0000010F04050600090064000A0064000BCC
:0E002F000064000C0064000D0064000E00640C
:100FEA00E4FF74FA2FF582E43463F583E0C39408CE
:100FFA00400302109B74FA2FF582E43463F583E010
:10100A00C39404504478C2C000E2FE74FA2FF582F9
:10101A00E43463F583E025E0FDF87403088002C335
:10102A0033D8FCF45ED000F278C2C000E2FE74FA53
:10103A002FF582E43463F583E025E0FDF8740308B4
:10104A008002C333D8FC0211FD78C3C000E2FE74EB
:10105A00FA2FF582E43463F583E024FC25E0FDF8F9
:10106A007403088002C333D8FCF45ED000F278C35C
:10107A00C000E2FE74FA2FF582E43463F583E024BB
:10108A00FC25E0FDF87403088002C333D8FC021182
:10109A00FD74FA2FF582E43463F583E0C3940850B3
:1010AA000302116174FA2FF582E43463F583E0C315
:1010BA009410400302116174FA2FF582E43463F547
:1010CA0083E0C3940C504878D2C000E2FE74FA2F31
:1010DA00F582E43463F583E024F825E0FDF874032F
:1010EA00088002C333D8FCF45ED000F278D2C00084
:1010FA00E2FE74FA2FF582E43463F583E024F825DE
:10110A00E0FDF87403088002C333D8FC0211FD78AD
:10111A00D3C000E2FE74FA2FF582E43463F583E06B
:10112A0024F425E0FDF87403088002C333D8FCF4E4
:10113A005ED000F278D3C000E2FE74FA2FF582E4A2
:10114A003463F583E024F425E0FDF8740308800293
:10115A00C333D8FC0211FD74FA2FF582E43463F527
:10116A0083E0C39414504778E2C000E2FE74FA2F79
:10117A00F582E43463F583E024F025E0FDF8740396
:10118A00088002C333D8FCF45ED000F278E2C000D3
:10119A00E2FE74FA2FF582E43463F583E024F02545
:1011AA00E0FDF87403088002C333D8FC804578E375
:1011BA00C000E2FE74FA2FF582E43463F583E0247A
:1011CA00EC25E0FDF87403088002C333D8FCF45E12
:1011DA00D000F278E3C000E2FE74FA2FF582E4341C
:1011EA0063F583E024EC25E0FDF87403088002C36C
:1011FA0033D8FC4ED000F20FEF64066003020FEC06
:01120A0022C1
:03005D00021F0679
:101F0600C0E0C0F0C083C082C0D075D000C000C0A1
:101F160001C002C003C004C005C006C0077881E244
:101F260030E607E24440F2121D9AD007D006D005EB
:101F3600D004D003D002D001D000D0D0D082D0833C
:051F4600D0F0D0E032F4
:101E7100D2AF43AB0843B6C0907132E04440F04367
:101E8100AB087877743FF208744BF2787A7430F2C9
:101E9100788914F27871744FF2187427F278727499
:101EA100A8F2087410F208E4F208F208F2787E74DD
:0F1EB100D0F2087404F208741EF2087402F222D0
:03003F00021EC0DE
:101EC000C0E0C0F0C083C082C0D075D000C000C0E8
:101ED00001C002C003C004C005C006C00790715312
:101EE000E030E707E04480F0120042D007D006D08F
:101EF00005D004D003D002D001D000D0D0D082D001
:061F000083D0F0D0E032B6
:1019E600E4FBEB25E025E02425F582E43400F583CD
:1019F600740193FF74FA2BF582E43463F583EFF0F8
:101A0600EB25E025E02427F582E43400F583E49312
:101A1600FE740193FFEB25E02418F582E43464F5A7
:101A260083EEF0A3EFF0EB25E024DCF582E43463EB
:101A3600F583E4F0A37441F0E47F01FEFDFC74FA43
:101A46002BF582E43463F583E0F9F812161EE53FC0
:101A56004FFFE53E4EFEE53D4DFDE53C4C8F3F8E8E
:101A66003E8D3DF53C0BEB640660030219E8120F50
:071A7600EA12194B021E7178
:101FD00012186F75D9DD75D95590715EE054FEF019
:101FE00075D9BB121F881219E6121FF1120060800A
:011FF000F8F8
:050B0D00906486EFF08A
:100B120090648B121665000000007FA512203B90A6
:100B2200648B121631EF24A5FFE43EFEE43DFDE4A2
:100B32003CFC90648B121659906486E0FF6401605D
:100B420028EF64026023EF6403601EEF64046019FF
:100B5200EF64056014EF6406600FEF6409600AEF4A
:100B6200640A6005EF6411703D7F0512203B9064BA
:100B720086E0FF12203B90648712163112203B90D0
:100B8200648B12164DC0009064871216317E00905D
:100B92006486E02405FDE433CD2FFFEE3DFE339560
:100BA200E0FDFC020D6D906486E0FF64076014EFC7
:100BB2006408600FEF640C600AEF640D6005EF6477
:100BC2001070647F0612203B906486E0FF12203B87
:100BD200906487121631780812160B12203B90642B
:100BE2008712163112203B90648B12164DC000C042
:100BF20002C003906487121631780812160B7E0029
:100C0200906486E02406FDE433CD2FFBEE3DFAA38B
:100C12001216317E00EB2FFFEE3AFE3395E0FDFC1B
:100C2200D003D002020D6D906486E0FF640B600871
:100C3200EF640F6003020CBF7F0712203B906486B3
:100C4200E0FF12203B906487121631781012160BC7
:100C520012203B906487121631780812160B12206C
:100C62003B90648712163112203B90648B12164D12
:100C7200C000C002C00390648712163178101216A9
:100C82000B7E00906486E02407FDE433CD2FFBEE5B
:100C92003DFAA3121631780812160B7E00EB2FFBD9
:100CA200EE3AFA9064871216317E00EB2FFFEE3A8D
:100CB200FE3395E0FDFCD003D002020D6D906486F8
:100CC200E0640E6003020D787F0812203B90648678
:100CD200E0FF12203B906487121631781812160B2F
:100CE20012203B906487121631781012160B1220D4
:100CF2003B906487121631780812160B12203B9033
:100D0200648712163112203B90648B12164DC0007C
:100D1200C002C003906487121631781812160B7E37
:100D220000906486E02408FDE433CD2FFBEE3DFA0B
:100D3200A3121631781012160B7E00EB2FFBEE3A3F
:100D4200FA906487121631780812160B7E00EB2F88
:100D5200FBEE3AFA9064871216317E00EB2FFFEE1B
:100D62003AFE3395E0FDFCD003D002D0001215BC50
:100D720090648B12165990648B121631E4FEFDFCBE
:100D820090648B12165990648B12163112203B7F9D
:060D92000A7E00022011A0
:1017160031206C6566742070726573730A0032201E
:101726006C6566742070726573730A0033206C658D
:1017360066742070726573730A0031207269676877
:10174600742070726573730A003220726967687458
:101756002070726573730A0033207269676874209B
:1017660070726573730A0031206C656674206C6F45
:101776006E672070726573730A0032206C6566743A
:10178600206C6F6E672070726573730A0033206C6D
:10179600656674206C6F6E672070726573730A00DD
:1017A60031207269676874206C6F6E67207072658D
:1017B60073730A0032207269676874206C6F6E67F3
:1017C6002070726573730A0033207269676874202B
:1017D6006C6F6E672070726573730A0031206C65DA
:1017E600667420636F6E74696E75652070726573BA
:1017F600730A0032206C65667420636F6E74696EBE
:1018060075652070726573730A0033206C656674A3
:1018160020636F6E74696E75652070726573730AE6
:10182600003120726967687420636F6E74696E7523
:10183600652070726573730A003220726967687476
:1018460020636F6E74696E75652070726573730AB6
:10185600003320726967687420636F6E74696E75F1
:09186600652070726573730A00BD
:101C680041602E004460260000000044602A000005
:071C7800000042602400009F
:1000600090642412166500000000121FF1AF1BAE51
:100070001AAD19AC1890642412165990602EE070D5
:100080007BFFFEFDFC90602612164DC31215FA7020
:100090000E906424121631906026121659805690E4
:1000A000642412163190602612164DC31215FA7090
:1000B0003E90602A121631EF2401FFE43EFEE43D3B
:1000C000FDE43CFC90602A121659E47FEE7E02FDAE
:1000D000FC90602A12164DC31215FA401890602A3F
:1000E0001216650000000090602E7402F0800690E9
:1000F000602E7404F07F017E0012201190602EE0CB
:10010000640460030201AAFF7E40FDFC9060261299
:10011000164DC31215FA70097BFF7A177916020182
:10012000A1E4FF7E20FDFC90602612164DC312153F
:10013000FA70087BFF7A1779248066E4FF7E10FD51
:10014000FC90602612164DC31215FA70087BFF7AD8
:10015000177932804CE4FF7E02FDFC906026121677
:100160004DC31215FA70087BFF7A1779408032E48C
:10017000FF7E04FDFC90602612164DC31215FA7026
:10018000087BFF7A17794F8018E4FF7E08FDFC900A
:10019000602612164DC31215FA700F7BFF7A17797D
:1001A0005E1204D490602E7405F090602EE064021C
:1001B0006003020258FF7E40FDFC90642412164D3D
:1001C000C31215FA70097BFF7A17796D02024FE4AA
:1001D000FF7E20FDFC90642412164DC31215FA70A8
:1001E000087BFF7A1779808066E4FF7E10FDFC9023
:1001F000642412164DC31215FA70087BFF7A177922
:1002000093804CE4FF7E02FDFC90642412164DC3E3
:100210001215FA70087BFF7A1779A68032E4FF7E08
:1002200004FDFC90642412164DC31215FA70087B6D
:10023000FF7A1779BA8018E4FF7E08FDFC906424E9
:1002400012164DC31215FA70097BFF7A1779CE1278
:1002500004D490602E7403F090602EE06403600379
:100260000203EE90642412163190602612164DC3DC
:100270001215FA60030203E890602A121631EF2487
:1002800001FFE43EFEE43DFDE43CFC90602A1216D2
:1002900059E4FF7E40FDFC90642412164DC31215F4
:1002A000FA70277F96FEFDFC90602A12164DC3124D
:1002B00015FA50030203DF90602A12166500000051
:1002C000007BFF7A1779E20203DCE4FF7E20FDFC6D
:1002D00090642412164DC31215FA70277F96FEFD06
:1002E000FC90602A12164DC31215FA50030203DF68
:1002F00090602A121665000000007BFF7A1779F9DA
:100300000203DCE4FF7E10FDFC90642412164DC352
:100310001215FA70277F96FEFDFC90602A12164D8A
:10032000C31215FA50030203DF90602A121665000B
:100330000000007BFF7A1879100203DCE4FF7E02E4
:10034000FDFC90642412164DC31215FA70267F9698
:10035000FEFDFC90602A12164DC31215FA500302DE
:1003600003DF90602A121665000000007BFF7A18F8
:1003700079278068E4FF7E04FDFC90642412164D0A
:10038000C31215FA70237F96FEFDFC90602A1216A8
:100390004DC31215FA404890602A121665000000FD
:1003A000007BFF7A18793F8033E4FF7E08FDFC90E4
:1003B000642412164DC31215FA70247F96FEFDFCBC
:1003C00090602A12164DC31215FA401390602A123B
:1003D0001665000000007BFF7A1879571204D47F5D
:1003E000017E00122011800690602E7406F090604D
:0B03F0002EE064066005E06405704329
:1003FB00E4FFFEFDFC90642412164DC31215FA7037
:10040B001290602475F0011215A67F017E00122058
:10041B00118007E4906024F0A3F0C3906025E09472
:10042B0032906024E09400400AE4F0A3F090602E38
:03043B007407F053
:10043E0090602EE0B407239064241216650000002D
:10044E00009060261216650000000090602A1216B9
:0A045E006500000000E490602EF03D
:010468002271
:101C7F0041604801426049000041604B0041604CA7
:0E1C8F000041604D0041604E7F42604FFFFFFC
:101F4B00E4F561AE3EAD3DAC3C853F178E168D156D
:101F5B008C14787EE254FCF2E24514F218E515F28B
:101F6B0018E516F218E517F2787FE254FBF2E2540B
:0D1F7B00FB4404F2E24401F27F01021B9CD2
:100D9800906428EFF0E0FF24E8F582E43463F583FB
:100DA800E004F074F42FF582E43463F583E4F0741E
:100DB800E82FF582E43463F583E0C39563500302BA
:100DC8000FE9906428E0FB24E8F582E43463F583B6
:100DD800E4F09000209364016003020F9A7F01FE03
:100DE800FDFC74FA2BF582E43463F583E0F9F8121C
:100DF800161EE51F4FF51FE51E4EF51EE51D4DF5A8
:100E08001DE51C4CF51CAF1FAE1EAD1DFC78011274
:100E1800160BEF5455FBEE5455FAED5455F9EC54B6
:100E280055F8C3E51F9BF53BE51E9AF53AE51D9974
:100E3800F539E51C98F538AF3BAE3AAD39FC780288
:100E480012160BEF5433FBEE5433FAED5433F9EC2E
:100E58005433F8E53B5433FFE53A5433FEE539544F
:100E680033FDE5385433FCEB2FF53BEA3EF53AE920
:100E78003DF539E83CF538AF3BAE3AAD39FC78047E
:100E880012160BEF253BFFEE353AFEED3539FDEC3A
:100E98003538FCEF540FF53BEE540FF53AED540F8F
:100EA800F539EC540FF538AF3BAE3AAD39FC78085C
:100EB80012160BEF253BFFEE353AED3539FDEC35D3
:100EC80038EFF53BE4F53AEDF539E4F538AE3AACF0
:100ED80038781012160BEF253BFFEE353AFEEFF58A
:100EE8003BEEF53AE4F539F538906428E025E0243E
:100EF80000F582E43464F583E0FEA3E0D39553EE75
:100F080095524024906428E0FF25E02400F582E40F
:100F18003464F583E0F552A3E0F55374FA2FF582B3
:100F2800E43463F583E0F564900020E493FFE4FC87
:100F3800FDFEAB3BAA3AA939A838D31215FA40529C
:100F4800AF650565D3EF9403748094805003020F56
:100F5800E9E4F565F51FF51EF51DF51C7F01FEFD9D
:100F6800FCA964A80112161E8F1B8E1A8D198C18E5
:100F7800E47F01FEFDFCA80112161E8F338E328D10
:100F8800318C30E4F552F553756420121C9E4337BA
:100F98000222E4F5657F01FEFDFC906428E0FB2455
:100FA800FAF582E43463F583E0F9F812161EE51BBE
:100FB8004FF51BE51A4EF51AE5194DF519E5184CCC
:100FC800F518E47F01FEFDFCA80312161EE5334F59
:100FD800F533E5324EF532E5314DF531E5304CF576
:020FE8003022B5
:1007CE00E4F566900024E493FFE566C39F400302C0
:1007DE000B0CE56625E02400F582E4346085828A00
:1007EE007F548F8B7E0E8E8C758903758889E56696
:1007FE0025E02400F582E4346085828A8F8B758C27
:10080E0012758904758889E56625E02418F582E459
:10081E003460F583E0FCA3E0C3950FEC950E502EEB
:10082E00E56625E0243CF582E43460F583E0FCA324
:10083E00E0C39513EC95125015AF600560EF94026E
:10084E0074809480400BE4F5605337FD8003E4F52B
:10085E0060E53730E125E56625E02400F582E434D5
:10086E0064F583E4F0A3F0E56625E0240CF582E45C
:10087E003464F583E4F0A3F002091CE56625E02458
:10088E0018F582E4346085828A8E8B758C0A7589A0
:10089E00267588892088FDE5F130E00875F107E4BA
:1008AE00F50AF50BAE0AE50B7802C333CE33CED87C
:1008BE00F9FFE56625E02400F582E43464F583EE65
:1008CE00F0A3EFF0E56625E0243CF582E434608584
:1008DE00828A758B12758C0A75892775888920888E
:1008EE00FDE5F130E00875F107E4F50AF50BAE0A07
:1008FE00E50B7802C333CE33CED8F9FFE56625E09B
:10090E00240CF582E43464F583EEF0A3EFF0E56693
:10091E0025E02418F582E43464F583E0FEA3E07844
:10092E0002CEC313CE13D8F9F5518E50E56625E0ED
:10093E002400F582E43464F583E0FEA3E0FF90002A
:10094E001CE493FC740193FDC3EF9DEE9C4017E5F0
:10095E006625E0240CF582E43464F583E0FEA3E022
:10096E00C39DEE9C50028068E56625E02400F5826A
:10097E00E43464F583E0FEA3E0C39551EE95504058
:10098E001CE56625E0240CF582E43464F583E0FE74
:10099E00A3E0C39551EE95504003020A2874EE254C
:1009AE0066F582E43463F583E004F074EE2566F5B3
:1009BE0082E43463F583E0FF900021E493FEEFD3ED
:1009CE009E406474EE2566F582E43463F583E4F0AC
:1009DE00E56625E0240CF582E43460F583E0FEA3A1
:1009EE00E0FFE56625E02418F582E43460F583EE39
:1009FE00F0A3EFF0E56625E02430F582E43460F5EF
:100A0E0083E0FEA3E0FFE56625E0243CF582E434B6
:100A1E0060F583EEF0A3EFF0800D74EE2566F5829F
:100A2E00E43463F583E4F0E56625E0240CF582E416
:100A3E00346085828AE56625E02400F582E4346020
:100A4E0085828B758C0A7589207588CB2088FDE58B
:100A5E00F130E00875F107E4F50AF50BE56625E0DF
:100A6E00240CF582E4346085828A758B547F0E8F58
:100A7E008C7589237588897E0A8E8A8F8BE566250B
:100A8E00E0240CF582E4346085828CE4F589758867
:100A9E0029E56625E02430F582E4346085828AE516
:100AAE006625E02400F582E4346085828B8E8C7599
:100ABE0089207588CB2088FDE5F130E00875F107B7
:100ACE00E4F50AF50BE56625E02430F582E43460A2
:100ADE0085828A758B547F0E8F8C758924758889D3
:100AEE00758A0A8F8BE56625E02430F582E4346042
:0F0AFE0085828CE4F58975882905660207D12267
:10120B00E4F566900024E493FFE566C39F40030278
:10121B0013C3E56625E02418F582E43464F583E016
:10122B00FEA3E07802CEC313CE13D8F9F5518E503E
:10123B00E56625E02400F582E43464F583E0FEA343
:10124B00E0D39551EE9550402EE56625E0240CF544
:10125B0082E43464F583E0FEA3E0D39551EE955020
:10126B00401574F42566F582E43463F583E4F0AF3E
:10127B0066120D980213BE900023E493FFC3E55151
:10128B009FFFE5509400FED3EF9400EE94004002D4
:10129B0080047E007F00E56625E02400F582E434BF
:1012AB0064F583E0FCA3E0C39FEC9E40030213B103
:1012BB00900023E493FFC3E5519FFFE5509400FE9C
:1012CB00D3EF9400EE9400400280047E007F00E593
:1012DB006625E0240CF582E43464F583E0FCA3E09E
:1012EB00C39FEC9E40030213B174E82566F582E4BC
:1012FB003463F583E4F074F42566F582E43463F526
:10130B0083E004F074F42566F582E43463F583E03E
:10131B00C3956350030213BE74F42566F582E4345F
:10132B0063F583E4F07F01FEFDFC74FA2566F5821C
:10133B00E43463F583E0F9F812161E1215C9E51FA4
:10134B005FF51FE51E5EF51EE51D5DF51DE51C5CDD
:10135B00F51CE47F01FEFDFCA966A80112161E1206
:10136B0015C9E5335FF533E5325EF532E5315DF5F1
:10137B0031E5305CF530E47F01FEFDFC74FA256647
:10138B00F582E43463F583E0F9F812161E1215C9E1
:10139B00E51B5FF51BE51A5EF51AE5195DF519E519
:1013AB00185CF518800D74F42566F582E43463F54A
:0913BB0083E4F0056602120E2223
:101C9E00E4F566900024E493FFE566C39F506EE57D
:101CAE006625E02400F582E43464F583E4F0A3F0C5
:101CBE00E56625E0240CF582E43464F583E4F0A3B4
:101CCE00F0E56625E0240CF582E43460F583E0FE51
:101CDE00A3E0FFE56625E02418F582E43460F58381
:101CEE00EEF0A3EFF0E56625E02430F582E43460F3
:101CFE00F583E0FEA3E0FFE56625E0243CF582E4F3
:0E1D0E003460F583EEF0A3EFF00566808622C8
:101A7D00E4F566900024E493FFE566C39F506790FC
:101A8D006048E0FF7E00C39410748094805053EF43
:101A9D009408748094804025E56625E02400F58245
:101AAD00E43460F583E0FEA3E0FFE56625E0240C59
:101ABD00F582E43460F583EE8FF01215A6E5662508
:101ACD00E02400F582E43460F583E0FEA3E0FFE559
:101ADD006625E02430F582E43460F583EE8FF01254
:101AED0015A60566808D906048E0C39410748094AF
:101AFD008040054337048006906048E004F07F0184
:031B0D00021B9C1C
:101D1C00E4FFFEFDFCAB1BAA1AA919A818C31215E7
:101D2C00FA606390604AE004F07006906049E00449
:101D3C00F0900018E493FE740193FF4E602ED39044
:101D4C00604AE09F906049E09E4021E4F0A3F0F5EA
:101D5C001FF51EF51DF51CF533F532F531F530F593
:101D6C001BF51AF519F518C20A021C9E90001AE40C
:101D7C0093FE740193FFD390604AE09F906049E01A
:0D1D8C009E400AD20A22E4906049F0A3F0C4
:011D99002227
:0513C400906453EFF0FE
:1013C900A3E0FCA3E0FDA3E0FEA3E0F52E8E2D8DA6
:1013D9002C8C2B7884E2F50A08E2F50B758A0875DE
:1013E9008B2B758C2775881D2088FDE4FFFEFDFC7D
:1013F900AB2AAA29A928A827D31215E44006AC27A5
:10140900A8048013AF2AAE29AD28AC271215D6AB94
:1014190007AA06A905A80490604FE0FEA3E0FFE42F
:10142900FCFDC31215E45041E4FFFEFDFCAB2AAA02
:1014390029A928A8271215E44006AF2AAE29800B4E
:10144900AF2AAE29AD28AC271215D690604FEEF021
:10145900A3EFF0906453E025E024DCF582E43463E3
:10146900F583E0A3E090604EF0900015E493FE74DC
:101479000193FFD3906050E09F90604FE09E501B16
:10148900906453E025E024DCF582E43463F583E0DD
:10149900A3E090604EF090604B8079E4FFFEFDFC84
:1014A900AB2AAA29A928A827D31215E440349064A5
:1014B90053E0FF25E024DCF582E43463F583E0FCA6
:1014C900A3E0D39400EC9400404DEF25E024DCF533
:1014D90082E43463F58374FFF5F01215A690604C2D
:1014E9008032906453E0FF25E024DCF582E4346324
:1014F900F583E0FCA3E0C3947FEC94005019EF2539
:10150900E024DCF582E43463F583E475F001121517
:10151900A690604D7401F090604CE064017011A3D5
:10152900E06401700B90604CF0A3F090604B04F004
:1015390090604BE06401703590604EE0FF90645319
:10154900E025E024DCF582E43463F583E4F0A3EFDD
:10155900F074FF90604FF0A3F090604E747FF0E458
:0F15690090604CF0A3F090604BF07F01227F0068
:011578002250
:101E0F00E4906452F090000F12163D780112161EE6
:101E1F00906454121659AF611213C4EF602205611A
:101E2F00E53730E4095337EF9064527401F09000B6
:101E3F0024E493FFE561C39F4006E4F56143371047
:101E4F00C39000137401939562E49394004008903B
:101E5F006452E064017005D209021F4BE4FF121BAC
:011E6F009CD6
:011E7000224F
:101B9C00EF70607F01FEFDFC74FA2561F582E43480
:101BAC0063F583E0F9F812161E8F178E168D158CBF
:101BBC0014787EE254FCF2E24514F218E515F218A2
:101BCC00E516F218E517F2E56125E024DCF582E470
:101BDC003463F583E0A3E0547FFF7878E254804FC0
:101BEC00F2787FE254FBF2E254FB4404F2E244014B
:101BFC00F2801CE56125E024DCF582E43463F58396
:101C0C00E0A3E0547FFF7878E254804FF2787FE2D3
:041C1C004402F2226A
:10194B00E4906424F0A3F0906424E0FEA3E0FFC3D2
:10195B009488EE94035031EF24CEFFEE34078F8240
:10196B00F583E493FF906425E02451FD906424E01B
:10197B0034608D82F583EFF0906425E004F070C73E
:08198B00906424E004F080BF29
:101993009063D97401F0A37460F0A37451F0E4F57B
:1019A30061F537F536F535F534C209C20AF51FF589
:1019B3001EF51DF51CF533F532F531F530F51BF544
:1019C3001AF519F51890001E93FF900022E493FE78
:1019D300A807088002C333D8FCF563756420E4FFCD
:0319E300021B9C48
:101D9A007884E2F50A08E2F50BAE0A7803CEC3139B
:101DAA00CE13D8F97802C333CE33CED8F9FFE56122
:101DBA0025E02400F582E43460F583EEF0A3EFF029
:101DCA0020090F900017E4937005D209021F4B02F5
:101DDA001E0F0561900024E493FFE561C39F401F35
:101DEA00787FE254FBF2E254FB4404F2E24401F24B
:101DFA00E4F561E53720E203021A7D433701227FC9
:051E0A0001121B9C22E7
:050042000562021D1C17
:101FF100E53730E01A9063D9A3E0FAA3E0F91216AD
:10200100A812120BE4F5617F01121B9C5337FE22CB
:101B1C00021FD0E493A3F8E493A34003F68001F2F0
:101B2C0008DFF48029E493A3F85407240CC8C333CA
:101B3C00C4540F4420C8834004F456800146F6DF99
:101B4C00E4800B0102040810204080901C20E47EED
:101B5C00019360BCA3FF543F30E509541FFEE4938E
:101B6C00A360010ECF54C025E060A840B8E493A355
:101B7C00FAE493A3F8E493A3C8C582C8CAC583CA80
:101B8C00F0A3C8C582C8CAC583CADFE9DEE780BE38
:011C9D000046
:10157900BB010CE58229F582E5833AF583E0225027
:1015890006E92582F8E622BBFE06E92582F8E22271
:0D159900E58229F582E5833AF583E493228B
:1015A600C5F0F8A3E028F0C5F0F8E58215827002D0
:0615B6001583E038F0226D
:0D15BC00EF2BFFEE3AFEED39FDEC38FC227E
:0D15C900CFF4CFCEF4CECDF4CDCCF4CC22B7
:0E15D600C3E49FFFE49EFEE49DFDE49CFC2226
:1015E400EB9FF5F0EA9E42F0E99D42F0EC6480C87E
:0615F40064809845F0221E
:1015FA00EB9FF5F0EA9E42F0E99D42F0E89C45F047
:01160A0022BD
:10160B00E8600FECC313FCED13FDEE13FEEF13FFBD
:03161B00D8F122E1
:10161E00E8600FEFC333FFEE33FEED33FDEC33FC2A
:03162E00D8F122CE
:0C163100E0FCA3E0FDA3E0FEA3E0FF222C
:10163D00E493FC740193FD740293FE740393FF22F3
:0C164D00E0F8A3E0F9A3E0FAA3E0FB2220
:0C165900ECF0A3EDF0A3EEF0A3EFF02204
:10166500A8828583F0D083D08212167C12167C1254
:10167500167C12167CE473E493A3C583C5F0C58379
:10168500C8C582C8F0A3C583C5F0C583C8C582C8CF
:011695002232
:09169600E0FBA3E0FAA3E0F92255
:09169F00EBF0A3EAF0A3E9F0224C
:0616A8008A838982E473CD
:10046900E522242BF582E43464F583E00522229009
:10047900642830070390642BE475F0011216D90241
:1004890016AE2000E97F2ED2008018EF540F249079
:10049900D43440D4FF30040BEF24BFB41A00500306
:1004A9002461FFE523600215230526E52670020570
:1004B9002530070E906428E475F0011216D9EF0271
:1004C90016C702004E7403D2078003E4C207F5225F
:1004D90090642812169FE4F523F525F526E5236097
:1004E900077F201204AC80F57524FFC201C200C247
:1004F90002C203C205C206C208120478FF700D3099
:1005090007057F001204BDAF26AE2522B4255FC2C0
:10051900D5C204120478FF24D0B40A00501A75F029
:100529000A782330D50508B6FF0106C6A426F620A9
:10053900D5047002D20380D924CFB41A00EF500435
:10054900C2E5D2040206BED20180C6D20080C0D262
:100559000280BCD2D580BAD20580B47F201204AC07
:100569002002077401B5230040F1120469FF120447
:10057900AC0204E6D208D2068095120469FB120483
:1005890069FA120469F94A4B7006798F7A077BFF79
:1005990020022EE523602A7E008E827583001215C3
:1005A9007960060EEE652470F0C2D5EBC0E0EAC0B2
:1005B900E0E9C0E0EE120705D0E0F9D0E0FAD0E0BA
:1005C900FB1216AEFF60AAEBC0E0EAC0E0E9C0E0AA
:1005D9001204ACD0E02401F9D0E03400FAD0E0FBF9
:1005E900E5240460DCD524D980877BFF7A0779016B
:1005F900D202809C791080027908C206C20880085C
:10060900D2D5790A8004790AC2D5E524047002F5A5
:1006190024E4FAFDFEFF120469FC7B082001131291
:100629000469FD7B1030000A120469FE120469FF97
:100639007B20EC3382D592D55013C3E43000069F5A
:10064900FFE49EFEE42001039DFDE49CFCE4CBF85D
:10065900C201EC700CCFCECDCCE824F8F870F38051
:1006690017C3EF33FFEE33FEED33FDEC33FCEB3311
:10067900FB994002FB0FD8E9EB300105F8D0E0C443
:1006890048B201C0E00AEC4D4E4F78207B0070C2A1
:10069900EAB5240040BCC0E0120707D0F0D0E02042
:1006A9000104C4C0E0C4B201C0F0120495D0F0D571
:1006B900F0EB0204E61216F005835305FD580554C4
:1006C9004C05504206014F0609440609490569438C
:0806D900060F5505F34605F379
:1006E1004505F34707AF5005582D055C2E057F2BB7
:1006F100056023057D2007982A0518480000057725
:100701003F3F3F00790AA2D5200314300509B910F3
:10071100020404B9080104A2D520060250010420F4
:1007210002689202B523005034C0E07F20300319E3
:100731007F30A20272067205500F12075EC202C21A
:1007410006C205C2087F30800F300503E9C0E01200
:1007510004AC300503D0E0F9D0E0B523CC30051767
:100761007F30B9100C1204AC7F583004077F7880B9
:1007710003B908031204AC3002057F2D0204AC7FDB
:10078100202008F87F2B2006F322920280CF286ECA
:10079100756C6C2900D2011204693001F8C201782C
:1007A1002330D50108F60205182D5043495812048B
:1007B100692403B405004001E49007AA9312049D43
:0D07C100743A12049DD2037523040205FD55
:1016AE00BB010689828A83E0225002E722BBFE023A
:0916BE00E32289828A83E493226D
:1016C700BB010689828A83F0225002F722BBFE0102
:0216D700F322FC
:1016D900F8E0FBA3A3E0F925F0F0E582158270029A
:0716E9001583E0FA38F0223E
:1016F000D083D082F8E4937012740193700DA3A389
:1017000093F8740193F5828883E47374029368609C
:06171000EFA3A3A380DF9C
:00000001FF
